{
  "_format": "hh-sol-artifact-1",
  "contractName": "ExchangeContract",
  "sourceName": "contracts/ExchangeContract.sol",
  "abi": [
    {
      "inputs": [
        {
          "internalType": "contract TokenContract",
          "name": "_token",
          "type": "address"
        },
        {
          "internalType": "contract NFTContract",
          "name": "_nft",
          "type": "address"
        }
      ],
      "stateMutability": "nonpayable",
      "type": "constructor"
    },
    {
      "anonymous": false,
      "inputs": [
        {
          "indexed": true,
          "internalType": "address",
          "name": "operator",
          "type": "address"
        },
        {
          "indexed": true,
          "internalType": "address",
          "name": "from",
          "type": "address"
        },
        {
          "indexed": false,
          "internalType": "uint256",
          "name": "tokenId",
          "type": "uint256"
        },
        {
          "indexed": false,
          "internalType": "bytes",
          "name": "data",
          "type": "bytes"
        }
      ],
      "name": "NFTReceived",
      "type": "event"
    },
    {
      "inputs": [
        {
          "internalType": "uint256",
          "name": "",
          "type": "uint256"
        }
      ],
      "name": "availableNFTs",
      "outputs": [
        {
          "internalType": "uint256",
          "name": "",
          "type": "uint256"
        }
      ],
      "stateMutability": "view",
      "type": "function"
    },
    {
      "inputs": [
        {
          "internalType": "address",
          "name": "_investor",
          "type": "address"
        }
      ],
      "name": "claimRewards",
      "outputs": [],
      "stateMutability": "nonpayable",
      "type": "function"
    },
    {
      "inputs": [
        {
          "internalType": "uint256",
          "name": "tokenId",
          "type": "uint256"
        }
      ],
      "name": "depositNFT",
      "outputs": [],
      "stateMutability": "nonpayable",
      "type": "function"
    },
    {
      "inputs": [],
      "name": "getAvailableNFTs",
      "outputs": [
        {
          "internalType": "uint256[]",
          "name": "",
          "type": "uint256[]"
        }
      ],
      "stateMutability": "view",
      "type": "function"
    },
    {
      "inputs": [
        {
          "internalType": "address",
          "name": "",
          "type": "address"
        }
      ],
      "name": "investors",
      "outputs": [
        {
          "internalType": "uint256",
          "name": "rewardTokens",
          "type": "uint256"
        },
        {
          "internalType": "bool",
          "name": "isType1",
          "type": "bool"
        }
      ],
      "stateMutability": "view",
      "type": "function"
    },
    {
      "inputs": [],
      "name": "nft",
      "outputs": [
        {
          "internalType": "contract NFTContract",
          "name": "",
          "type": "address"
        }
      ],
      "stateMutability": "view",
      "type": "function"
    },
    {
      "inputs": [
        {
          "internalType": "address",
          "name": "operator",
          "type": "address"
        },
        {
          "internalType": "address",
          "name": "from",
          "type": "address"
        },
        {
          "internalType": "uint256",
          "name": "tokenId",
          "type": "uint256"
        },
        {
          "internalType": "bytes",
          "name": "data",
          "type": "bytes"
        }
      ],
      "name": "onERC721Received",
      "outputs": [
        {
          "internalType": "bytes4",
          "name": "",
          "type": "bytes4"
        }
      ],
      "stateMutability": "nonpayable",
      "type": "function"
    },
    {
      "inputs": [
        {
          "internalType": "address",
          "name": "_investor",
          "type": "address"
        },
        {
          "internalType": "uint256",
          "name": "_rewardTokens",
          "type": "uint256"
        },
        {
          "internalType": "bool",
          "name": "_isType1",
          "type": "bool"
        }
      ],
      "name": "registerInvestor",
      "outputs": [],
      "stateMutability": "nonpayable",
      "type": "function"
    },
    {
      "inputs": [],
      "name": "token",
      "outputs": [
        {
          "internalType": "contract TokenContract",
          "name": "",
          "type": "address"
        }
      ],
      "stateMutability": "view",
      "type": "function"
    }
  ],
  "bytecode": "0x608060405234801561001057600080fd5b506040516111ac3803806111ac8339818101604052810190610032919061016d565b816000806101000a81548173ffffffffffffffffffffffffffffffffffffffff021916908373ffffffffffffffffffffffffffffffffffffffff16021790555080600160006101000a81548173ffffffffffffffffffffffffffffffffffffffff021916908373ffffffffffffffffffffffffffffffffffffffff16021790555050506101ad565b600080fd5b600073ffffffffffffffffffffffffffffffffffffffff82169050919050565b60006100ea826100bf565b9050919050565b60006100fc826100df565b9050919050565b61010c816100f1565b811461011757600080fd5b50565b60008151905061012981610103565b92915050565b600061013a826100df565b9050919050565b61014a8161012f565b811461015557600080fd5b50565b60008151905061016781610141565b92915050565b60008060408385031215610184576101836100ba565b5b60006101928582860161011a565b92505060206101a385828601610158565b9150509250929050565b610ff0806101bc6000396000f3fe608060405234801561001057600080fd5b50600436106100935760003560e01c8063bb88982311610066578063bb88982314610135578063e91a7ca614610151578063e9b2e0d71461016d578063ef5cfb8c1461019d578063fc0c546a146101b957610093565b8063150b7a021461009857806332702c95146100c857806347ccca02146100e65780636f7bc9be14610104575b600080fd5b6100b260048036038101906100ad91906108ee565b6101d7565b6040516100bf91906109b1565b60405180910390f35b6100d061027e565b6040516100dd9190610a8a565b60405180910390f35b6100ee6102d6565b6040516100fb9190610b0b565b60405180910390f35b61011e60048036038101906101199190610b26565b6102fc565b60405161012c929190610b7d565b60405180910390f35b61014f600480360381019061014a9190610bd2565b61032d565b005b61016b60048036038101906101669190610c25565b6103b5565b005b61018760048036038101906101829190610c25565b610472565b6040516101949190610c52565b60405180910390f35b6101b760048036038101906101b29190610b26565b610496565b005b6101c16107c7565b6040516101ce9190610c8e565b60405180910390f35b600060038490806001815401808255809150506001900390600052602060002001600090919091909150558473ffffffffffffffffffffffffffffffffffffffff168673ffffffffffffffffffffffffffffffffffffffff167f1d823cdc8f0514a95b53538df2d2f3deaf98d1c534c6e750daa593173c27f8f086868660405161026393929190610d07565b60405180910390a363150b7a0260e01b905095945050505050565b606060038054806020026020016040519081016040528092919081815260200182805480156102cc57602002820191906000526020600020905b8154815260200190600101908083116102b8575b5050505050905090565b600160009054906101000a900473ffffffffffffffffffffffffffffffffffffffff1681565b60026020528060005260406000206000915090508060000154908060010160009054906101000a900460ff16905082565b6040518060400160405280838152602001821515815250600260008573ffffffffffffffffffffffffffffffffffffffff1673ffffffffffffffffffffffffffffffffffffffff1681526020019081526020016000206000820151816000015560208201518160010160006101000a81548160ff021916908315150217905550905050505050565b600160009054906101000a900473ffffffffffffffffffffffffffffffffffffffff1673ffffffffffffffffffffffffffffffffffffffff166342842e0e3330846040518463ffffffff1660e01b815260040161041493929190610d48565b600060405180830381600087803b15801561042e57600080fd5b505af1158015610442573d6000803e3d6000fd5b50505050600381908060018154018082558091505060019003906000526020600020016000909190919091505550565b6003818154811061048257600080fd5b906000526020600020016000915090505481565b6000600260008373ffffffffffffffffffffffffffffffffffffffff1673ffffffffffffffffffffffffffffffffffffffff16815260200190815260200160002090506000816000015411610520576040517f08c379a000000000000000000000000000000000000000000000000000000000815260040161051790610ddc565b60405180910390fd5b8060010160009054906101000a900460ff16156105df5760008054906101000a900473ffffffffffffffffffffffffffffffffffffffff1673ffffffffffffffffffffffffffffffffffffffff1663a9059cbb8383600001546040518363ffffffff1660e01b8152600401610596929190610dfc565b6020604051808303816000875af11580156105b5573d6000803e3d6000fd5b505050506040513d601f19601f820116820180604052508101906105d99190610e3a565b506107b9565b600060038054905011610627576040517f08c379a000000000000000000000000000000000000000000000000000000000815260040161061e90610ed9565b60405180910390fd5b60006003600160038054905061063d9190610f28565b8154811061064e5761064d610f5c565b5b90600052602060002001549050600380548061066d5761066c610f8b565b5b6001900381819060005260206000200160009055905560008054906101000a900473ffffffffffffffffffffffffffffffffffffffff1673ffffffffffffffffffffffffffffffffffffffff1663a9059cbb8484600001546040518363ffffffff1660e01b81526004016106e2929190610dfc565b6020604051808303816000875af1158015610701573d6000803e3d6000fd5b505050506040513d601f19601f820116820180604052508101906107259190610e3a565b50600160009054906101000a900473ffffffffffffffffffffffffffffffffffffffff1673ffffffffffffffffffffffffffffffffffffffff166342842e0e3085846040518463ffffffff1660e01b815260040161078593929190610d48565b600060405180830381600087803b15801561079f57600080fd5b505af11580156107b3573d6000803e3d6000fd5b50505050505b600081600001819055505050565b60008054906101000a900473ffffffffffffffffffffffffffffffffffffffff1681565b600080fd5b600080fd5b600073ffffffffffffffffffffffffffffffffffffffff82169050919050565b6000610820826107f5565b9050919050565b61083081610815565b811461083b57600080fd5b50565b60008135905061084d81610827565b92915050565b6000819050919050565b61086681610853565b811461087157600080fd5b50565b6000813590506108838161085d565b92915050565b600080fd5b600080fd5b600080fd5b60008083601f8401126108ae576108ad610889565b5b8235905067ffffffffffffffff8111156108cb576108ca61088e565b5b6020830191508360018202830111156108e7576108e6610893565b5b9250929050565b60008060008060006080868803121561090a576109096107eb565b5b60006109188882890161083e565b95505060206109298882890161083e565b945050604061093a88828901610874565b935050606086013567ffffffffffffffff81111561095b5761095a6107f0565b5b61096788828901610898565b92509250509295509295909350565b60007fffffffff0000000000000000000000000000000000000000000000000000000082169050919050565b6109ab81610976565b82525050565b60006020820190506109c660008301846109a2565b92915050565b600081519050919050565b600082825260208201905092915050565b6000819050602082019050919050565b610a0181610853565b82525050565b6000610a1383836109f8565b60208301905092915050565b6000602082019050919050565b6000610a37826109cc565b610a4181856109d7565b9350610a4c836109e8565b8060005b83811015610a7d578151610a648882610a07565b9750610a6f83610a1f565b925050600181019050610a50565b5085935050505092915050565b60006020820190508181036000830152610aa48184610a2c565b905092915050565b6000819050919050565b6000610ad1610acc610ac7846107f5565b610aac565b6107f5565b9050919050565b6000610ae382610ab6565b9050919050565b6000610af582610ad8565b9050919050565b610b0581610aea565b82525050565b6000602082019050610b206000830184610afc565b92915050565b600060208284031215610b3c57610b3b6107eb565b5b6000610b4a8482850161083e565b91505092915050565b610b5c81610853565b82525050565b60008115159050919050565b610b7781610b62565b82525050565b6000604082019050610b926000830185610b53565b610b9f6020830184610b6e565b9392505050565b610baf81610b62565b8114610bba57600080fd5b50565b600081359050610bcc81610ba6565b92915050565b600080600060608486031215610beb57610bea6107eb565b5b6000610bf98682870161083e565b9350506020610c0a86828701610874565b9250506040610c1b86828701610bbd565b9150509250925092565b600060208284031215610c3b57610c3a6107eb565b5b6000610c4984828501610874565b91505092915050565b6000602082019050610c676000830184610b53565b92915050565b6000610c7882610ad8565b9050919050565b610c8881610c6d565b82525050565b6000602082019050610ca36000830184610c7f565b92915050565b600082825260208201905092915050565b82818337600083830152505050565b6000601f19601f8301169050919050565b6000610ce68385610ca9565b9350610cf3838584610cba565b610cfc83610cc9565b840190509392505050565b6000604082019050610d1c6000830186610b53565b8181036020830152610d2f818486610cda565b9050949350505050565b610d4281610815565b82525050565b6000606082019050610d5d6000830186610d39565b610d6a6020830185610d39565b610d776040830184610b53565b949350505050565b600082825260208201905092915050565b7f4e6f20686179207265636f6d70656e7361732070617261207265636c616d6172600082015250565b6000610dc6602083610d7f565b9150610dd182610d90565b602082019050919050565b60006020820190508181036000830152610df581610db9565b9050919050565b6000604082019050610e116000830185610d39565b610e1e6020830184610b53565b9392505050565b600081519050610e3481610ba6565b92915050565b600060208284031215610e5057610e4f6107eb565b5b6000610e5e84828501610e25565b91505092915050565b7f4e6f20686179204e46547320646973706f6e69626c657320706172612072656360008201527f6c616d6172000000000000000000000000000000000000000000000000000000602082015250565b6000610ec3602583610d7f565b9150610ece82610e67565b604082019050919050565b60006020820190508181036000830152610ef281610eb6565b9050919050565b7f4e487b7100000000000000000000000000000000000000000000000000000000600052601160045260246000fd5b6000610f3382610853565b9150610f3e83610853565b9250828203905081811115610f5657610f55610ef9565b5b92915050565b7f4e487b7100000000000000000000000000000000000000000000000000000000600052603260045260246000fd5b7f4e487b7100000000000000000000000000000000000000000000000000000000600052603160045260246000fdfea264697066735822122023206ce1f95c84eb9dd491753aa0bc15aef9f32d3c8250b729415c6f164f148464736f6c634300081b0033",
  "linkReferences": {},
  "deployedLinkReferences": {}
}