{
  "_format": "hh-sol-artifact-1",
  "contractName": "NFTContract",
  "sourceName": "contracts/NFTContract.sol",
  "abi": [
    {
      "inputs": [],
      "stateMutability": "nonpayable",
      "type": "constructor"
    },
    {
      "inputs": [
        {
          "internalType": "address",
          "name": "sender",
          "type": "address"
        },
        {
          "internalType": "uint256",
          "name": "tokenId",
          "type": "uint256"
        },
        {
          "internalType": "address",
          "name": "owner",
          "type": "address"
        }
      ],
      "name": "ERC721IncorrectOwner",
      "type": "error"
    },
    {
      "inputs": [
        {
          "internalType": "address",
          "name": "operator",
          "type": "address"
        },
        {
          "internalType": "uint256",
          "name": "tokenId",
          "type": "uint256"
        }
      ],
      "name": "ERC721InsufficientApproval",
      "type": "error"
    },
    {
      "inputs": [
        {
          "internalType": "address",
          "name": "approver",
          "type": "address"
        }
      ],
      "name": "ERC721InvalidApprover",
      "type": "error"
    },
    {
      "inputs": [
        {
          "internalType": "address",
          "name": "operator",
          "type": "address"
        }
      ],
      "name": "ERC721InvalidOperator",
      "type": "error"
    },
    {
      "inputs": [
        {
          "internalType": "address",
          "name": "owner",
          "type": "address"
        }
      ],
      "name": "ERC721InvalidOwner",
      "type": "error"
    },
    {
      "inputs": [
        {
          "internalType": "address",
          "name": "receiver",
          "type": "address"
        }
      ],
      "name": "ERC721InvalidReceiver",
      "type": "error"
    },
    {
      "inputs": [
        {
          "internalType": "address",
          "name": "sender",
          "type": "address"
        }
      ],
      "name": "ERC721InvalidSender",
      "type": "error"
    },
    {
      "inputs": [
        {
          "internalType": "uint256",
          "name": "tokenId",
          "type": "uint256"
        }
      ],
      "name": "ERC721NonexistentToken",
      "type": "error"
    },
    {
      "inputs": [
        {
          "internalType": "address",
          "name": "owner",
          "type": "address"
        }
      ],
      "name": "OwnableInvalidOwner",
      "type": "error"
    },
    {
      "inputs": [
        {
          "internalType": "address",
          "name": "account",
          "type": "address"
        }
      ],
      "name": "OwnableUnauthorizedAccount",
      "type": "error"
    },
    {
      "anonymous": false,
      "inputs": [
        {
          "indexed": true,
          "internalType": "address",
          "name": "owner",
          "type": "address"
        },
        {
          "indexed": true,
          "internalType": "address",
          "name": "approved",
          "type": "address"
        },
        {
          "indexed": true,
          "internalType": "uint256",
          "name": "tokenId",
          "type": "uint256"
        }
      ],
      "name": "Approval",
      "type": "event"
    },
    {
      "anonymous": false,
      "inputs": [
        {
          "indexed": true,
          "internalType": "address",
          "name": "owner",
          "type": "address"
        },
        {
          "indexed": true,
          "internalType": "address",
          "name": "operator",
          "type": "address"
        },
        {
          "indexed": false,
          "internalType": "bool",
          "name": "approved",
          "type": "bool"
        }
      ],
      "name": "ApprovalForAll",
      "type": "event"
    },
    {
      "anonymous": false,
      "inputs": [
        {
          "indexed": false,
          "internalType": "uint256",
          "name": "_fromTokenId",
          "type": "uint256"
        },
        {
          "indexed": false,
          "internalType": "uint256",
          "name": "_toTokenId",
          "type": "uint256"
        }
      ],
      "name": "BatchMetadataUpdate",
      "type": "event"
    },
    {
      "anonymous": false,
      "inputs": [
        {
          "indexed": false,
          "internalType": "uint256",
          "name": "_tokenId",
          "type": "uint256"
        }
      ],
      "name": "MetadataUpdate",
      "type": "event"
    },
    {
      "anonymous": false,
      "inputs": [
        {
          "indexed": true,
          "internalType": "address",
          "name": "previousOwner",
          "type": "address"
        },
        {
          "indexed": true,
          "internalType": "address",
          "name": "newOwner",
          "type": "address"
        }
      ],
      "name": "OwnershipTransferred",
      "type": "event"
    },
    {
      "anonymous": false,
      "inputs": [
        {
          "indexed": true,
          "internalType": "address",
          "name": "from",
          "type": "address"
        },
        {
          "indexed": true,
          "internalType": "address",
          "name": "to",
          "type": "address"
        },
        {
          "indexed": true,
          "internalType": "uint256",
          "name": "tokenId",
          "type": "uint256"
        }
      ],
      "name": "Transfer",
      "type": "event"
    },
    {
      "inputs": [
        {
          "internalType": "address",
          "name": "to",
          "type": "address"
        },
        {
          "internalType": "uint256",
          "name": "tokenId",
          "type": "uint256"
        }
      ],
      "name": "approve",
      "outputs": [],
      "stateMutability": "nonpayable",
      "type": "function"
    },
    {
      "inputs": [
        {
          "internalType": "address",
          "name": "owner",
          "type": "address"
        }
      ],
      "name": "balanceOf",
      "outputs": [
        {
          "internalType": "uint256",
          "name": "",
          "type": "uint256"
        }
      ],
      "stateMutability": "view",
      "type": "function"
    },
    {
      "inputs": [
        {
          "internalType": "uint256",
          "name": "tokenId",
          "type": "uint256"
        }
      ],
      "name": "getApproved",
      "outputs": [
        {
          "internalType": "address",
          "name": "",
          "type": "address"
        }
      ],
      "stateMutability": "view",
      "type": "function"
    },
    {
      "inputs": [
        {
          "internalType": "address",
          "name": "owner",
          "type": "address"
        },
        {
          "internalType": "address",
          "name": "operator",
          "type": "address"
        }
      ],
      "name": "isApprovedForAll",
      "outputs": [
        {
          "internalType": "bool",
          "name": "",
          "type": "bool"
        }
      ],
      "stateMutability": "view",
      "type": "function"
    },
    {
      "inputs": [],
      "name": "name",
      "outputs": [
        {
          "internalType": "string",
          "name": "",
          "type": "string"
        }
      ],
      "stateMutability": "view",
      "type": "function"
    },
    {
      "inputs": [],
      "name": "owner",
      "outputs": [
        {
          "internalType": "address",
          "name": "",
          "type": "address"
        }
      ],
      "stateMutability": "view",
      "type": "function"
    },
    {
      "inputs": [
        {
          "internalType": "uint256",
          "name": "tokenId",
          "type": "uint256"
        }
      ],
      "name": "ownerOf",
      "outputs": [
        {
          "internalType": "address",
          "name": "",
          "type": "address"
        }
      ],
      "stateMutability": "view",
      "type": "function"
    },
    {
      "inputs": [],
      "name": "renounceOwnership",
      "outputs": [],
      "stateMutability": "nonpayable",
      "type": "function"
    },
    {
      "inputs": [
        {
          "internalType": "string",
          "name": "uri",
          "type": "string"
        }
      ],
      "name": "safeMint",
      "outputs": [],
      "stateMutability": "nonpayable",
      "type": "function"
    },
    {
      "inputs": [
        {
          "internalType": "address",
          "name": "from",
          "type": "address"
        },
        {
          "internalType": "address",
          "name": "to",
          "type": "address"
        },
        {
          "internalType": "uint256",
          "name": "tokenId",
          "type": "uint256"
        }
      ],
      "name": "safeTransferFrom",
      "outputs": [],
      "stateMutability": "nonpayable",
      "type": "function"
    },
    {
      "inputs": [
        {
          "internalType": "address",
          "name": "from",
          "type": "address"
        },
        {
          "internalType": "address",
          "name": "to",
          "type": "address"
        },
        {
          "internalType": "uint256",
          "name": "tokenId",
          "type": "uint256"
        },
        {
          "internalType": "bytes",
          "name": "data",
          "type": "bytes"
        }
      ],
      "name": "safeTransferFrom",
      "outputs": [],
      "stateMutability": "nonpayable",
      "type": "function"
    },
    {
      "inputs": [
        {
          "internalType": "address",
          "name": "operator",
          "type": "address"
        },
        {
          "internalType": "bool",
          "name": "approved",
          "type": "bool"
        }
      ],
      "name": "setApprovalForAll",
      "outputs": [],
      "stateMutability": "nonpayable",
      "type": "function"
    },
    {
      "inputs": [
        {
          "internalType": "bytes4",
          "name": "interfaceId",
          "type": "bytes4"
        }
      ],
      "name": "supportsInterface",
      "outputs": [
        {
          "internalType": "bool",
          "name": "",
          "type": "bool"
        }
      ],
      "stateMutability": "view",
      "type": "function"
    },
    {
      "inputs": [],
      "name": "symbol",
      "outputs": [
        {
          "internalType": "string",
          "name": "",
          "type": "string"
        }
      ],
      "stateMutability": "view",
      "type": "function"
    },
    {
      "inputs": [
        {
          "internalType": "uint256",
          "name": "tokenId",
          "type": "uint256"
        }
      ],
      "name": "tokenURI",
      "outputs": [
        {
          "internalType": "string",
          "name": "",
          "type": "string"
        }
      ],
      "stateMutability": "view",
      "type": "function"
    },
    {
      "inputs": [
        {
          "internalType": "address",
          "name": "from",
          "type": "address"
        },
        {
          "internalType": "address",
          "name": "to",
          "type": "address"
        },
        {
          "internalType": "uint256",
          "name": "tokenId",
          "type": "uint256"
        }
      ],
      "name": "transferFrom",
      "outputs": [],
      "stateMutability": "nonpayable",
      "type": "function"
    },
    {
      "inputs": [
        {
          "internalType": "address",
          "name": "from",
          "type": "address"
        },
        {
          "internalType": "address",
          "name": "to",
          "type": "address"
        },
        {
          "internalType": "uint256",
          "name": "tokenId",
          "type": "uint256"
        }
      ],
      "name": "transferNFT",
      "outputs": [],
      "stateMutability": "nonpayable",
      "type": "function"
    },
    {
      "inputs": [
        {
          "internalType": "address",
          "name": "newOwner",
          "type": "address"
        }
      ],
      "name": "transferOwnership",
      "outputs": [],
      "stateMutability": "nonpayable",
      "type": "function"
    }
  ],
  "bytecode": "0x608060405234801561001057600080fd5b50336040518060400160405280600781526020017f4d79546f6b656e000000000000000000000000000000000000000000000000008152506040518060400160405280600381526020017f4d544b0000000000000000000000000000000000000000000000000000000000815250816000908161008d919061043d565b50806001908161009d919061043d565b505050600073ffffffffffffffffffffffffffffffffffffffff168173ffffffffffffffffffffffffffffffffffffffff16036101125760006040517f1e4fbdf70000000000000000000000000000000000000000000000000000000081526004016101099190610550565b60405180910390fd5b6101218161012760201b60201c565b5061056b565b6000600760009054906101000a900473ffffffffffffffffffffffffffffffffffffffff16905081600760006101000a81548173ffffffffffffffffffffffffffffffffffffffff021916908373ffffffffffffffffffffffffffffffffffffffff1602179055508173ffffffffffffffffffffffffffffffffffffffff168173ffffffffffffffffffffffffffffffffffffffff167f8be0079c531659141344cd1fd0a4f28419497f9722a3daafe3b4186f6b6457e060405160405180910390a35050565b600081519050919050565b7f4e487b7100000000000000000000000000000000000000000000000000000000600052604160045260246000fd5b7f4e487b7100000000000000000000000000000000000000000000000000000000600052602260045260246000fd5b6000600282049050600182168061026e57607f821691505b60208210810361028157610280610227565b5b50919050565b60008190508160005260206000209050919050565b60006020601f8301049050919050565b600082821b905092915050565b6000600883026102e97fffffffffffffffffffffffffffffffffffffffffffffffffffffffffffffffff826102ac565b6102f386836102ac565b95508019841693508086168417925050509392505050565b6000819050919050565b6000819050919050565b600061033a6103356103308461030b565b610315565b61030b565b9050919050565b6000819050919050565b6103548361031f565b61036861036082610341565b8484546102b9565b825550505050565b600090565b61037d610370565b61038881848461034b565b505050565b5b818110156103ac576103a1600082610375565b60018101905061038e565b5050565b601f8211156103f1576103c281610287565b6103cb8461029c565b810160208510156103da578190505b6103ee6103e68561029c565b83018261038d565b50505b505050565b600082821c905092915050565b6000610414600019846008026103f6565b1980831691505092915050565b600061042d8383610403565b9150826002028217905092915050565b610446826101ed565b67ffffffffffffffff81111561045f5761045e6101f8565b5b6104698254610256565b6104748282856103b0565b600060209050601f8311600181146104a75760008415610495578287015190505b61049f8582610421565b865550610507565b601f1984166104b586610287565b60005b828110156104dd578489015182556001820191506020850194506020810190506104b8565b868310156104fa57848901516104f6601f891682610403565b8355505b6001600288020188555050505b505050505050565b600073ffffffffffffffffffffffffffffffffffffffff82169050919050565b600061053a8261050f565b9050919050565b61054a8161052f565b82525050565b60006020820190506105656000830184610541565b92915050565b6126ab8061057a6000396000f3fe608060405234801561001057600080fd5b50600436106101165760003560e01c806370a08231116100a2578063a22cb46511610071578063a22cb465146102cb578063b88d4fde146102e7578063c87b56dd14610303578063e985e9c514610333578063f2fde38b1461036357610116565b806370a0823114610255578063715018a6146102855780638da5cb5b1461028f57806395d89b41146102ad57610116565b806323b872dd116100e957806323b872dd146101b557806342842e0e146101d15780636352211e146101ed578063695850fb1461021d57806369e9cae11461023957610116565b806301ffc9a71461011b57806306fdde031461014b578063081812fc14610169578063095ea7b314610199575b600080fd5b61013560048036038101906101309190611b16565b61037f565b6040516101429190611b5e565b60405180910390f35b610153610391565b6040516101609190611c09565b60405180910390f35b610183600480360381019061017e9190611c61565b610423565b6040516101909190611ccf565b60405180910390f35b6101b360048036038101906101ae9190611d16565b61043f565b005b6101cf60048036038101906101ca9190611d56565b610455565b005b6101eb60048036038101906101e69190611d56565b610557565b005b61020760048036038101906102029190611c61565b610577565b6040516102149190611ccf565b60405180910390f35b61023760048036038101906102329190611ede565b610589565b005b610253600480360381019061024e9190611d56565b6105c4565b005b61026f600480360381019061026a9190611f27565b6105d4565b60405161027c9190611f63565b60405180910390f35b61028d61068e565b005b6102976106a2565b6040516102a49190611ccf565b60405180910390f35b6102b56106cc565b6040516102c29190611c09565b60405180910390f35b6102e560048036038101906102e09190611faa565b61075e565b005b61030160048036038101906102fc919061208b565b610774565b005b61031d60048036038101906103189190611c61565b610799565b60405161032a9190611c09565b60405180910390f35b61034d6004803603810190610348919061210e565b6107ab565b60405161035a9190611b5e565b60405180910390f35b61037d60048036038101906103789190611f27565b61083f565b005b600061038a826108c5565b9050919050565b6060600080546103a09061217d565b80601f01602080910402602001604051908101604052809291908181526020018280546103cc9061217d565b80156104195780601f106103ee57610100808354040283529160200191610419565b820191906000526020600020905b8154815290600101906020018083116103fc57829003601f168201915b5050505050905090565b600061042e82610926565b50610438826109ae565b9050919050565b610451828261044c6109eb565b6109f3565b5050565b600073ffffffffffffffffffffffffffffffffffffffff168273ffffffffffffffffffffffffffffffffffffffff16036104c75760006040517f64a0ae920000000000000000000000000000000000000000000000000000000081526004016104be9190611ccf565b60405180910390fd5b60006104db83836104d66109eb565b610a05565b90508373ffffffffffffffffffffffffffffffffffffffff168173ffffffffffffffffffffffffffffffffffffffff1614610551578382826040517f64283d7b000000000000000000000000000000000000000000000000000000008152600401610548939291906121ae565b60405180910390fd5b50505050565b61057283838360405180602001604052806000815250610774565b505050565b600061058282610926565b9050919050565b610591610c1f565b6000600860008154809291906105a690612214565b9190505590506105b63382610ca6565b6105c08183610cc4565b5050565b6105cf838383610557565b505050565b60008073ffffffffffffffffffffffffffffffffffffffff168273ffffffffffffffffffffffffffffffffffffffff16036106475760006040517f89c62b6400000000000000000000000000000000000000000000000000000000815260040161063e9190611ccf565b60405180910390fd5b600360008373ffffffffffffffffffffffffffffffffffffffff1673ffffffffffffffffffffffffffffffffffffffff168152602001908152602001600020549050919050565b610696610c1f565b6106a06000610d20565b565b6000600760009054906101000a900473ffffffffffffffffffffffffffffffffffffffff16905090565b6060600180546106db9061217d565b80601f01602080910402602001604051908101604052809291908181526020018280546107079061217d565b80156107545780601f1061072957610100808354040283529160200191610754565b820191906000526020600020905b81548152906001019060200180831161073757829003601f168201915b5050505050905090565b6107706107696109eb565b8383610de6565b5050565b61077f848484610455565b61079361078a6109eb565b85858585610f55565b50505050565b60606107a482611106565b9050919050565b6000600560008473ffffffffffffffffffffffffffffffffffffffff1673ffffffffffffffffffffffffffffffffffffffff16815260200190815260200160002060008373ffffffffffffffffffffffffffffffffffffffff1673ffffffffffffffffffffffffffffffffffffffff16815260200190815260200160002060009054906101000a900460ff16905092915050565b610847610c1f565b600073ffffffffffffffffffffffffffffffffffffffff168173ffffffffffffffffffffffffffffffffffffffff16036108b95760006040517f1e4fbdf70000000000000000000000000000000000000000000000000000000081526004016108b09190611ccf565b60405180910390fd5b6108c281610d20565b50565b6000634906490660e01b7bffffffffffffffffffffffffffffffffffffffffffffffffffffffff1916827bffffffffffffffffffffffffffffffffffffffffffffffffffffffff1916148061091f575061091e82611219565b5b9050919050565b600080610932836112fb565b9050600073ffffffffffffffffffffffffffffffffffffffff168173ffffffffffffffffffffffffffffffffffffffff16036109a557826040517f7e27328900000000000000000000000000000000000000000000000000000000815260040161099c9190611f63565b60405180910390fd5b80915050919050565b60006004600083815260200190815260200160002060009054906101000a900473ffffffffffffffffffffffffffffffffffffffff169050919050565b600033905090565b610a008383836001611338565b505050565b600080610a11846112fb565b9050600073ffffffffffffffffffffffffffffffffffffffff168373ffffffffffffffffffffffffffffffffffffffff1614610a5357610a528184866114fd565b5b600073ffffffffffffffffffffffffffffffffffffffff168173ffffffffffffffffffffffffffffffffffffffff1614610ae457610a95600085600080611338565b6001600360008373ffffffffffffffffffffffffffffffffffffffff1673ffffffffffffffffffffffffffffffffffffffff168152602001908152602001600020600082825403925050819055505b600073ffffffffffffffffffffffffffffffffffffffff168573ffffffffffffffffffffffffffffffffffffffff1614610b67576001600360008773ffffffffffffffffffffffffffffffffffffffff1673ffffffffffffffffffffffffffffffffffffffff168152602001908152602001600020600082825401925050819055505b846002600086815260200190815260200160002060006101000a81548173ffffffffffffffffffffffffffffffffffffffff021916908373ffffffffffffffffffffffffffffffffffffffff160217905550838573ffffffffffffffffffffffffffffffffffffffff168273ffffffffffffffffffffffffffffffffffffffff167fddf252ad1be2c89b69c2b068fc378daa952ba7f163c4a11628f55a4df523b3ef60405160405180910390a4809150509392505050565b610c276109eb565b73ffffffffffffffffffffffffffffffffffffffff16610c456106a2565b73ffffffffffffffffffffffffffffffffffffffff1614610ca457610c686109eb565b6040517f118cdaa7000000000000000000000000000000000000000000000000000000008152600401610c9b9190611ccf565b60405180910390fd5b565b610cc08282604051806020016040528060008152506115c1565b5050565b80600660008481526020019081526020016000209081610ce49190612408565b507ff8e1a15aba9398e019f0b49df1a4fde98ee17ae345cb5f6b5e2c27f5033e8ce782604051610d149190611f63565b60405180910390a15050565b6000600760009054906101000a900473ffffffffffffffffffffffffffffffffffffffff16905081600760006101000a81548173ffffffffffffffffffffffffffffffffffffffff021916908373ffffffffffffffffffffffffffffffffffffffff1602179055508173ffffffffffffffffffffffffffffffffffffffff168173ffffffffffffffffffffffffffffffffffffffff167f8be0079c531659141344cd1fd0a4f28419497f9722a3daafe3b4186f6b6457e060405160405180910390a35050565b600073ffffffffffffffffffffffffffffffffffffffff168273ffffffffffffffffffffffffffffffffffffffff1603610e5757816040517f5b08ba18000000000000000000000000000000000000000000000000000000008152600401610e4e9190611ccf565b60405180910390fd5b80600560008573ffffffffffffffffffffffffffffffffffffffff1673ffffffffffffffffffffffffffffffffffffffff16815260200190815260200160002060008473ffffffffffffffffffffffffffffffffffffffff1673ffffffffffffffffffffffffffffffffffffffff16815260200190815260200160002060006101000a81548160ff0219169083151502179055508173ffffffffffffffffffffffffffffffffffffffff168373ffffffffffffffffffffffffffffffffffffffff167f17307eab39ab6107e8899845ad3d59bd9653f200f220920489ca2b5937696c3183604051610f489190611b5e565b60405180910390a3505050565b60008373ffffffffffffffffffffffffffffffffffffffff163b11156110ff578273ffffffffffffffffffffffffffffffffffffffff1663150b7a02868685856040518563ffffffff1660e01b8152600401610fb4949392919061252f565b6020604051808303816000875af1925050508015610ff057506040513d601f19601f82011682018060405250810190610fed9190612590565b60015b611074573d8060008114611020576040519150601f19603f3d011682016040523d82523d6000602084013e611025565b606091505b50600081510361106c57836040517f64a0ae920000000000000000000000000000000000000000000000000000000081526004016110639190611ccf565b60405180910390fd5b805181602001fd5b63150b7a0260e01b7bffffffffffffffffffffffffffffffffffffffffffffffffffffffff1916817bffffffffffffffffffffffffffffffffffffffffffffffffffffffff1916146110fd57836040517f64a0ae920000000000000000000000000000000000000000000000000000000081526004016110f49190611ccf565b60405180910390fd5b505b5050505050565b606061111182610926565b5060006006600084815260200190815260200160002080546111329061217d565b80601f016020809104026020016040519081016040528092919081815260200182805461115e9061217d565b80156111ab5780601f10611180576101008083540402835291602001916111ab565b820191906000526020600020905b81548152906001019060200180831161118e57829003601f168201915b5050505050905060006111bc6115e5565b905060008151036111d1578192505050611214565b6000825111156112065780826040516020016111ee9291906125f9565b60405160208183030381529060405292505050611214565b61120f846115fc565b925050505b919050565b60007f80ac58cd000000000000000000000000000000000000000000000000000000007bffffffffffffffffffffffffffffffffffffffffffffffffffffffff1916827bffffffffffffffffffffffffffffffffffffffffffffffffffffffff191614806112e457507f5b5e139f000000000000000000000000000000000000000000000000000000007bffffffffffffffffffffffffffffffffffffffffffffffffffffffff1916827bffffffffffffffffffffffffffffffffffffffffffffffffffffffff1916145b806112f457506112f382611665565b5b9050919050565b60006002600083815260200190815260200160002060009054906101000a900473ffffffffffffffffffffffffffffffffffffffff169050919050565b80806113715750600073ffffffffffffffffffffffffffffffffffffffff168273ffffffffffffffffffffffffffffffffffffffff1614155b156114a557600061138184610926565b9050600073ffffffffffffffffffffffffffffffffffffffff168373ffffffffffffffffffffffffffffffffffffffff16141580156113ec57508273ffffffffffffffffffffffffffffffffffffffff168173ffffffffffffffffffffffffffffffffffffffff1614155b80156113ff57506113fd81846107ab565b155b1561144157826040517fa9fbf51f0000000000000000000000000000000000000000000000000000000081526004016114389190611ccf565b60405180910390fd5b81156114a357838573ffffffffffffffffffffffffffffffffffffffff168273ffffffffffffffffffffffffffffffffffffffff167f8c5be1e5ebec7d5bd14f71427d1e84f3dd0314c0f7b2291e5b200ac8c7c3b92560405160405180910390a45b505b836004600085815260200190815260200160002060006101000a81548173ffffffffffffffffffffffffffffffffffffffff021916908373ffffffffffffffffffffffffffffffffffffffff16021790555050505050565b6115088383836116cf565b6115bc57600073ffffffffffffffffffffffffffffffffffffffff168373ffffffffffffffffffffffffffffffffffffffff160361157d57806040517f7e2732890000000000000000000000000000000000000000000000000000000081526004016115749190611f63565b60405180910390fd5b81816040517f177e802f0000000000000000000000000000000000000000000000000000000081526004016115b392919061261d565b60405180910390fd5b505050565b6115cb8383611790565b6115e06115d66109eb565b6000858585610f55565b505050565b606060405180602001604052806000815250905090565b606061160782610926565b5060006116126115e5565b90506000815111611632576040518060200160405280600081525061165d565b8061163c84611889565b60405160200161164d9291906125f9565b6040516020818303038152906040525b915050919050565b60007f01ffc9a7000000000000000000000000000000000000000000000000000000007bffffffffffffffffffffffffffffffffffffffffffffffffffffffff1916827bffffffffffffffffffffffffffffffffffffffffffffffffffffffff1916149050919050565b60008073ffffffffffffffffffffffffffffffffffffffff168373ffffffffffffffffffffffffffffffffffffffff161415801561178757508273ffffffffffffffffffffffffffffffffffffffff168473ffffffffffffffffffffffffffffffffffffffff161480611748575061174784846107ab565b5b8061178657508273ffffffffffffffffffffffffffffffffffffffff1661176e836109ae565b73ffffffffffffffffffffffffffffffffffffffff16145b5b90509392505050565b600073ffffffffffffffffffffffffffffffffffffffff168273ffffffffffffffffffffffffffffffffffffffff16036118025760006040517f64a0ae920000000000000000000000000000000000000000000000000000000081526004016117f99190611ccf565b60405180910390fd5b600061181083836000610a05565b9050600073ffffffffffffffffffffffffffffffffffffffff168173ffffffffffffffffffffffffffffffffffffffff16146118845760006040517f73c6ac6e00000000000000000000000000000000000000000000000000000000815260040161187b9190611ccf565b60405180910390fd5b505050565b60606000600161189884611957565b01905060008167ffffffffffffffff8111156118b7576118b6611db3565b5b6040519080825280601f01601f1916602001820160405280156118e95781602001600182028036833780820191505090505b509050600082602001820190505b60011561194c578080600190039150507f3031323334353637383961626364656600000000000000000000000000000000600a86061a8153600a85816119405761193f612646565b5b049450600085036118f7575b819350505050919050565b600080600090507a184f03e93ff9f4daa797ed6e38ed64bf6a1f01000000000000000083106119b5577a184f03e93ff9f4daa797ed6e38ed64bf6a1f01000000000000000083816119ab576119aa612646565b5b0492506040810190505b6d04ee2d6d415b85acef810000000083106119f2576d04ee2d6d415b85acef810000000083816119e8576119e7612646565b5b0492506020810190505b662386f26fc100008310611a2157662386f26fc100008381611a1757611a16612646565b5b0492506010810190505b6305f5e1008310611a4a576305f5e1008381611a4057611a3f612646565b5b0492506008810190505b6127108310611a6f576127108381611a6557611a64612646565b5b0492506004810190505b60648310611a925760648381611a8857611a87612646565b5b0492506002810190505b600a8310611aa1576001810190505b80915050919050565b6000604051905090565b600080fd5b600080fd5b60007fffffffff0000000000000000000000000000000000000000000000000000000082169050919050565b611af381611abe565b8114611afe57600080fd5b50565b600081359050611b1081611aea565b92915050565b600060208284031215611b2c57611b2b611ab4565b5b6000611b3a84828501611b01565b91505092915050565b60008115159050919050565b611b5881611b43565b82525050565b6000602082019050611b736000830184611b4f565b92915050565b600081519050919050565b600082825260208201905092915050565b60005b83811015611bb3578082015181840152602081019050611b98565b60008484015250505050565b6000601f19601f8301169050919050565b6000611bdb82611b79565b611be58185611b84565b9350611bf5818560208601611b95565b611bfe81611bbf565b840191505092915050565b60006020820190508181036000830152611c238184611bd0565b905092915050565b6000819050919050565b611c3e81611c2b565b8114611c4957600080fd5b50565b600081359050611c5b81611c35565b92915050565b600060208284031215611c7757611c76611ab4565b5b6000611c8584828501611c4c565b91505092915050565b600073ffffffffffffffffffffffffffffffffffffffff82169050919050565b6000611cb982611c8e565b9050919050565b611cc981611cae565b82525050565b6000602082019050611ce46000830184611cc0565b92915050565b611cf381611cae565b8114611cfe57600080fd5b50565b600081359050611d1081611cea565b92915050565b60008060408385031215611d2d57611d2c611ab4565b5b6000611d3b85828601611d01565b9250506020611d4c85828601611c4c565b9150509250929050565b600080600060608486031215611d6f57611d6e611ab4565b5b6000611d7d86828701611d01565b9350506020611d8e86828701611d01565b9250506040611d9f86828701611c4c565b9150509250925092565b600080fd5b600080fd5b7f4e487b7100000000000000000000000000000000000000000000000000000000600052604160045260246000fd5b611deb82611bbf565b810181811067ffffffffffffffff82111715611e0a57611e09611db3565b5b80604052505050565b6000611e1d611aaa565b9050611e298282611de2565b919050565b600067ffffffffffffffff821115611e4957611e48611db3565b5b611e5282611bbf565b9050602081019050919050565b82818337600083830152505050565b6000611e81611e7c84611e2e565b611e13565b905082815260208101848484011115611e9d57611e9c611dae565b5b611ea8848285611e5f565b509392505050565b600082601f830112611ec557611ec4611da9565b5b8135611ed5848260208601611e6e565b91505092915050565b600060208284031215611ef457611ef3611ab4565b5b600082013567ffffffffffffffff811115611f1257611f11611ab9565b5b611f1e84828501611eb0565b91505092915050565b600060208284031215611f3d57611f3c611ab4565b5b6000611f4b84828501611d01565b91505092915050565b611f5d81611c2b565b82525050565b6000602082019050611f786000830184611f54565b92915050565b611f8781611b43565b8114611f9257600080fd5b50565b600081359050611fa481611f7e565b92915050565b60008060408385031215611fc157611fc0611ab4565b5b6000611fcf85828601611d01565b9250506020611fe085828601611f95565b9150509250929050565b600067ffffffffffffffff82111561200557612004611db3565b5b61200e82611bbf565b9050602081019050919050565b600061202e61202984611fea565b611e13565b90508281526020810184848401111561204a57612049611dae565b5b612055848285611e5f565b509392505050565b600082601f83011261207257612071611da9565b5b813561208284826020860161201b565b91505092915050565b600080600080608085870312156120a5576120a4611ab4565b5b60006120b387828801611d01565b94505060206120c487828801611d01565b93505060406120d587828801611c4c565b925050606085013567ffffffffffffffff8111156120f6576120f5611ab9565b5b6121028782880161205d565b91505092959194509250565b6000806040838503121561212557612124611ab4565b5b600061213385828601611d01565b925050602061214485828601611d01565b9150509250929050565b7f4e487b7100000000000000000000000000000000000000000000000000000000600052602260045260246000fd5b6000600282049050600182168061219557607f821691505b6020821081036121a8576121a761214e565b5b50919050565b60006060820190506121c36000830186611cc0565b6121d06020830185611f54565b6121dd6040830184611cc0565b949350505050565b7f4e487b7100000000000000000000000000000000000000000000000000000000600052601160045260246000fd5b600061221f82611c2b565b91507fffffffffffffffffffffffffffffffffffffffffffffffffffffffffffffffff8203612251576122506121e5565b5b600182019050919050565b60008190508160005260206000209050919050565b60006020601f8301049050919050565b600082821b905092915050565b6000600883026122be7fffffffffffffffffffffffffffffffffffffffffffffffffffffffffffffffff82612281565b6122c88683612281565b95508019841693508086168417925050509392505050565b6000819050919050565b60006123056123006122fb84611c2b565b6122e0565b611c2b565b9050919050565b6000819050919050565b61231f836122ea565b61233361232b8261230c565b84845461228e565b825550505050565b600090565b61234861233b565b612353818484612316565b505050565b5b818110156123775761236c600082612340565b600181019050612359565b5050565b601f8211156123bc5761238d8161225c565b61239684612271565b810160208510156123a5578190505b6123b96123b185612271565b830182612358565b50505b505050565b600082821c905092915050565b60006123df600019846008026123c1565b1980831691505092915050565b60006123f883836123ce565b9150826002028217905092915050565b61241182611b79565b67ffffffffffffffff81111561242a57612429611db3565b5b612434825461217d565b61243f82828561237b565b600060209050601f8311600181146124725760008415612460578287015190505b61246a85826123ec565b8655506124d2565b601f1984166124808661225c565b60005b828110156124a857848901518255600182019150602085019450602081019050612483565b868310156124c557848901516124c1601f8916826123ce565b8355505b6001600288020188555050505b505050505050565b600081519050919050565b600082825260208201905092915050565b6000612501826124da565b61250b81856124e5565b935061251b818560208601611b95565b61252481611bbf565b840191505092915050565b60006080820190506125446000830187611cc0565b6125516020830186611cc0565b61255e6040830185611f54565b818103606083015261257081846124f6565b905095945050505050565b60008151905061258a81611aea565b92915050565b6000602082840312156125a6576125a5611ab4565b5b60006125b48482850161257b565b91505092915050565b600081905092915050565b60006125d382611b79565b6125dd81856125bd565b93506125ed818560208601611b95565b80840191505092915050565b600061260582856125c8565b915061261182846125c8565b91508190509392505050565b60006040820190506126326000830185611cc0565b61263f6020830184611f54565b9392505050565b7f4e487b7100000000000000000000000000000000000000000000000000000000600052601260045260246000fdfea2646970667358221220d12fcf4e65be26a977ef903386ada3034dd29d9d4d449d10f5a04fc0830f1b9364736f6c634300081b0033",
  "linkReferences": {},
  "deployedLinkReferences": {}
}