{
  "_format": "hh-sol-artifact-1",
  "contractName": "ExchangeContract",
  "sourceName": "contracts/ExchangeContract.sol",
  "abi": [
    {
      "inputs": [
        {
          "internalType": "contract TokenContract",
          "name": "_token",
          "type": "address"
        },
        {
          "internalType": "contract NFTContract",
          "name": "_nft",
          "type": "address"
        }
      ],
      "stateMutability": "nonpayable",
      "type": "constructor"
    },
    {
      "inputs": [],
      "name": "claimRewards",
      "outputs": [],
      "stateMutability": "nonpayable",
      "type": "function"
    },
    {
      "inputs": [
        {
          "internalType": "address",
          "name": "",
          "type": "address"
        }
      ],
      "name": "investors",
      "outputs": [
        {
          "internalType": "uint256",
          "name": "rewardTokens",
          "type": "uint256"
        },
        {
          "internalType": "bool",
          "name": "isType1",
          "type": "bool"
        }
      ],
      "stateMutability": "view",
      "type": "function"
    },
    {
      "inputs": [],
      "name": "nft",
      "outputs": [
        {
          "internalType": "contract NFTContract",
          "name": "",
          "type": "address"
        }
      ],
      "stateMutability": "view",
      "type": "function"
    },
    {
      "inputs": [
        {
          "internalType": "address",
          "name": "_investor",
          "type": "address"
        },
        {
          "internalType": "uint256",
          "name": "_rewardTokens",
          "type": "uint256"
        },
        {
          "internalType": "bool",
          "name": "_isType1",
          "type": "bool"
        }
      ],
      "name": "registerInvestor",
      "outputs": [],
      "stateMutability": "nonpayable",
      "type": "function"
    },
    {
      "inputs": [],
      "name": "token",
      "outputs": [
        {
          "internalType": "contract TokenContract",
          "name": "",
          "type": "address"
        }
      ],
      "stateMutability": "view",
      "type": "function"
    }
  ],
  "bytecode": "0x608060405234801561001057600080fd5b50604051610a27380380610a278339818101604052810190610032919061016d565b816000806101000a81548173ffffffffffffffffffffffffffffffffffffffff021916908373ffffffffffffffffffffffffffffffffffffffff16021790555080600160006101000a81548173ffffffffffffffffffffffffffffffffffffffff021916908373ffffffffffffffffffffffffffffffffffffffff16021790555050506101ad565b600080fd5b600073ffffffffffffffffffffffffffffffffffffffff82169050919050565b60006100ea826100bf565b9050919050565b60006100fc826100df565b9050919050565b61010c816100f1565b811461011757600080fd5b50565b60008151905061012981610103565b92915050565b600061013a826100df565b9050919050565b61014a8161012f565b811461015557600080fd5b50565b60008151905061016781610141565b92915050565b60008060408385031215610184576101836100ba565b5b60006101928582860161011a565b92505060206101a385828601610158565b9150509250929050565b61086b806101bc6000396000f3fe608060405234801561001057600080fd5b50600436106100575760003560e01c8063372500ab1461005c57806347ccca02146100665780636f7bc9be14610084578063bb889823146100b5578063fc0c546a146100d1575b600080fd5b6100646100ef565b005b61006e61037b565b60405161007b91906104fd565b60405180910390f35b61009e6004803603810190610099919061055b565b6103a1565b6040516100ac9291906105bc565b60405180910390f35b6100cf60048036038101906100ca919061063d565b6103d2565b005b6100d961045a565b6040516100e691906106b1565b60405180910390f35b6000600260003373ffffffffffffffffffffffffffffffffffffffff1673ffffffffffffffffffffffffffffffffffffffff16815260200190815260200160002090506000816000015411610179576040517f08c379a000000000000000000000000000000000000000000000000000000000815260040161017090610729565b60405180910390fd5b8060010160009054906101000a900460ff16156102385760008054906101000a900473ffffffffffffffffffffffffffffffffffffffff1673ffffffffffffffffffffffffffffffffffffffff1663a9059cbb3383600001546040518363ffffffff1660e01b81526004016101ef929190610758565b6020604051808303816000875af115801561020e573d6000803e3d6000fd5b505050506040513d601f19601f820116820180604052508101906102329190610796565b5061036e565b60008054906101000a900473ffffffffffffffffffffffffffffffffffffffff1673ffffffffffffffffffffffffffffffffffffffff1663a9059cbb3383600001546040518363ffffffff1660e01b8152600401610297929190610758565b6020604051808303816000875af11580156102b6573d6000803e3d6000fd5b505050506040513d601f19601f820116820180604052508101906102da9190610796565b50600160009054906101000a900473ffffffffffffffffffffffffffffffffffffffff1673ffffffffffffffffffffffffffffffffffffffff166342842e0e303360016040518463ffffffff1660e01b815260040161033b939291906107fe565b600060405180830381600087803b15801561035557600080fd5b505af1158015610369573d6000803e3d6000fd5b505050505b6000816000018190555050565b600160009054906101000a900473ffffffffffffffffffffffffffffffffffffffff1681565b60026020528060005260406000206000915090508060000154908060010160009054906101000a900460ff16905082565b6040518060400160405280838152602001821515815250600260008573ffffffffffffffffffffffffffffffffffffffff1673ffffffffffffffffffffffffffffffffffffffff1681526020019081526020016000206000820151816000015560208201518160010160006101000a81548160ff021916908315150217905550905050505050565b60008054906101000a900473ffffffffffffffffffffffffffffffffffffffff1681565b600073ffffffffffffffffffffffffffffffffffffffff82169050919050565b6000819050919050565b60006104c36104be6104b98461047e565b61049e565b61047e565b9050919050565b60006104d5826104a8565b9050919050565b60006104e7826104ca565b9050919050565b6104f7816104dc565b82525050565b600060208201905061051260008301846104ee565b92915050565b600080fd5b60006105288261047e565b9050919050565b6105388161051d565b811461054357600080fd5b50565b6000813590506105558161052f565b92915050565b60006020828403121561057157610570610518565b5b600061057f84828501610546565b91505092915050565b6000819050919050565b61059b81610588565b82525050565b60008115159050919050565b6105b6816105a1565b82525050565b60006040820190506105d16000830185610592565b6105de60208301846105ad565b9392505050565b6105ee81610588565b81146105f957600080fd5b50565b60008135905061060b816105e5565b92915050565b61061a816105a1565b811461062557600080fd5b50565b60008135905061063781610611565b92915050565b60008060006060848603121561065657610655610518565b5b600061066486828701610546565b9350506020610675868287016105fc565b925050604061068686828701610628565b9150509250925092565b600061069b826104ca565b9050919050565b6106ab81610690565b82525050565b60006020820190506106c660008301846106a2565b92915050565b600082825260208201905092915050565b7f4e6f20686179207265636f6d70656e7361732070617261207265636c616d6172600082015250565b60006107136020836106cc565b915061071e826106dd565b602082019050919050565b6000602082019050818103600083015261074281610706565b9050919050565b6107528161051d565b82525050565b600060408201905061076d6000830185610749565b61077a6020830184610592565b9392505050565b60008151905061079081610611565b92915050565b6000602082840312156107ac576107ab610518565b5b60006107ba84828501610781565b91505092915050565b6000819050919050565b60006107e86107e36107de846107c3565b61049e565b610588565b9050919050565b6107f8816107cd565b82525050565b60006060820190506108136000830186610749565b6108206020830185610749565b61082d60408301846107ef565b94935050505056fea264697066735822122064564ca5f05a65b70df1a0bae1ac6060a9474f24c58e016bdab2c5dfe1726b1c64736f6c634300081b0033",
  "linkReferences": {},
  "deployedLinkReferences": {}
}