{
  "_format": "hh-sol-artifact-1",
  "contractName": "ExchangeContract",
  "sourceName": "contracts/ExchangeContract.sol",
  "abi": [
    {
      "inputs": [
        {
          "internalType": "contract TokenContract",
          "name": "_token",
          "type": "address"
        },
        {
          "internalType": "contract NFTContract",
          "name": "_nft",
          "type": "address"
        }
      ],
      "stateMutability": "nonpayable",
      "type": "constructor"
    },
    {
      "anonymous": false,
      "inputs": [
        {
          "indexed": true,
          "internalType": "address",
          "name": "operator",
          "type": "address"
        },
        {
          "indexed": true,
          "internalType": "address",
          "name": "from",
          "type": "address"
        },
        {
          "indexed": false,
          "internalType": "uint256",
          "name": "tokenId",
          "type": "uint256"
        },
        {
          "indexed": false,
          "internalType": "bytes",
          "name": "data",
          "type": "bytes"
        }
      ],
      "name": "NFTReceived",
      "type": "event"
    },
    {
      "inputs": [
        {
          "internalType": "uint256",
          "name": "",
          "type": "uint256"
        }
      ],
      "name": "availableNFTs",
      "outputs": [
        {
          "internalType": "uint256",
          "name": "",
          "type": "uint256"
        }
      ],
      "stateMutability": "view",
      "type": "function"
    },
    {
      "inputs": [
        {
          "internalType": "address",
          "name": "_investor",
          "type": "address"
        }
      ],
      "name": "claimRewards",
      "outputs": [],
      "stateMutability": "nonpayable",
      "type": "function"
    },
    {
      "inputs": [
        {
          "internalType": "uint256",
          "name": "tokenId",
          "type": "uint256"
        }
      ],
      "name": "depositNFT",
      "outputs": [],
      "stateMutability": "nonpayable",
      "type": "function"
    },
    {
      "inputs": [
        {
          "internalType": "address",
          "name": "",
          "type": "address"
        }
      ],
      "name": "investors",
      "outputs": [
        {
          "internalType": "uint256",
          "name": "rewardTokens",
          "type": "uint256"
        },
        {
          "internalType": "bool",
          "name": "isType1",
          "type": "bool"
        }
      ],
      "stateMutability": "view",
      "type": "function"
    },
    {
      "inputs": [],
      "name": "nft",
      "outputs": [
        {
          "internalType": "contract NFTContract",
          "name": "",
          "type": "address"
        }
      ],
      "stateMutability": "view",
      "type": "function"
    },
    {
      "inputs": [
        {
          "internalType": "address",
          "name": "operator",
          "type": "address"
        },
        {
          "internalType": "address",
          "name": "from",
          "type": "address"
        },
        {
          "internalType": "uint256",
          "name": "tokenId",
          "type": "uint256"
        },
        {
          "internalType": "bytes",
          "name": "data",
          "type": "bytes"
        }
      ],
      "name": "onERC721Received",
      "outputs": [
        {
          "internalType": "bytes4",
          "name": "",
          "type": "bytes4"
        }
      ],
      "stateMutability": "nonpayable",
      "type": "function"
    },
    {
      "inputs": [
        {
          "internalType": "address",
          "name": "_investor",
          "type": "address"
        },
        {
          "internalType": "uint256",
          "name": "_rewardTokens",
          "type": "uint256"
        },
        {
          "internalType": "bool",
          "name": "_isType1",
          "type": "bool"
        }
      ],
      "name": "registerInvestor",
      "outputs": [],
      "stateMutability": "nonpayable",
      "type": "function"
    },
    {
      "inputs": [],
      "name": "token",
      "outputs": [
        {
          "internalType": "contract TokenContract",
          "name": "",
          "type": "address"
        }
      ],
      "stateMutability": "view",
      "type": "function"
    }
  ],
  "bytecode": "0x608060405234801561001057600080fd5b506040516110223803806110228339818101604052810190610032919061016d565b816000806101000a81548173ffffffffffffffffffffffffffffffffffffffff021916908373ffffffffffffffffffffffffffffffffffffffff16021790555080600160006101000a81548173ffffffffffffffffffffffffffffffffffffffff021916908373ffffffffffffffffffffffffffffffffffffffff16021790555050506101ad565b600080fd5b600073ffffffffffffffffffffffffffffffffffffffff82169050919050565b60006100ea826100bf565b9050919050565b60006100fc826100df565b9050919050565b61010c816100f1565b811461011757600080fd5b50565b60008151905061012981610103565b92915050565b600061013a826100df565b9050919050565b61014a8161012f565b811461015557600080fd5b50565b60008151905061016781610141565b92915050565b60008060408385031215610184576101836100ba565b5b60006101928582860161011a565b92505060206101a385828601610158565b9150509250929050565b610e66806101bc6000396000f3fe608060405234801561001057600080fd5b50600436106100885760003560e01c8063e91a7ca61161005b578063e91a7ca614610128578063e9b2e0d714610144578063ef5cfb8c14610174578063fc0c546a1461019057610088565b8063150b7a021461008d57806347ccca02146100bd5780636f7bc9be146100db578063bb8898231461010c575b600080fd5b6100a760048036038101906100a29190610844565b6101ae565b6040516100b49190610907565b60405180910390f35b6100c561022c565b6040516100d29190610981565b60405180910390f35b6100f560048036038101906100f0919061099c565b610252565b6040516101039291906109f3565b60405180910390f35b61012660048036038101906101219190610a48565b610283565b005b610142600480360381019061013d9190610a9b565b61030b565b005b61015e60048036038101906101599190610a9b565b6103c8565b60405161016b9190610ac8565b60405180910390f35b61018e6004803603810190610189919061099c565b6103ec565b005b61019861071d565b6040516101a59190610b04565b60405180910390f35b60008473ffffffffffffffffffffffffffffffffffffffff168673ffffffffffffffffffffffffffffffffffffffff167f1d823cdc8f0514a95b53538df2d2f3deaf98d1c534c6e750daa593173c27f8f086868660405161021193929190610b7d565b60405180910390a363150b7a0260e01b905095945050505050565b600160009054906101000a900473ffffffffffffffffffffffffffffffffffffffff1681565b60026020528060005260406000206000915090508060000154908060010160009054906101000a900460ff16905082565b6040518060400160405280838152602001821515815250600260008573ffffffffffffffffffffffffffffffffffffffff1673ffffffffffffffffffffffffffffffffffffffff1681526020019081526020016000206000820151816000015560208201518160010160006101000a81548160ff021916908315150217905550905050505050565b600160009054906101000a900473ffffffffffffffffffffffffffffffffffffffff1673ffffffffffffffffffffffffffffffffffffffff166342842e0e3330846040518463ffffffff1660e01b815260040161036a93929190610bbe565b600060405180830381600087803b15801561038457600080fd5b505af1158015610398573d6000803e3d6000fd5b50505050600381908060018154018082558091505060019003906000526020600020016000909190919091505550565b600381815481106103d857600080fd5b906000526020600020016000915090505481565b6000600260008373ffffffffffffffffffffffffffffffffffffffff1673ffffffffffffffffffffffffffffffffffffffff16815260200190815260200160002090506000816000015411610476576040517f08c379a000000000000000000000000000000000000000000000000000000000815260040161046d90610c52565b60405180910390fd5b8060010160009054906101000a900460ff16156105355760008054906101000a900473ffffffffffffffffffffffffffffffffffffffff1673ffffffffffffffffffffffffffffffffffffffff1663a9059cbb8383600001546040518363ffffffff1660e01b81526004016104ec929190610c72565b6020604051808303816000875af115801561050b573d6000803e3d6000fd5b505050506040513d601f19601f8201168201806040525081019061052f9190610cb0565b5061070f565b60006003805490501161057d576040517f08c379a000000000000000000000000000000000000000000000000000000000815260040161057490610d4f565b60405180910390fd5b6000600360016003805490506105939190610d9e565b815481106105a4576105a3610dd2565b5b9060005260206000200154905060038054806105c3576105c2610e01565b5b6001900381819060005260206000200160009055905560008054906101000a900473ffffffffffffffffffffffffffffffffffffffff1673ffffffffffffffffffffffffffffffffffffffff1663a9059cbb8484600001546040518363ffffffff1660e01b8152600401610638929190610c72565b6020604051808303816000875af1158015610657573d6000803e3d6000fd5b505050506040513d601f19601f8201168201806040525081019061067b9190610cb0565b50600160009054906101000a900473ffffffffffffffffffffffffffffffffffffffff1673ffffffffffffffffffffffffffffffffffffffff166342842e0e3085846040518463ffffffff1660e01b81526004016106db93929190610bbe565b600060405180830381600087803b1580156106f557600080fd5b505af1158015610709573d6000803e3d6000fd5b50505050505b600081600001819055505050565b60008054906101000a900473ffffffffffffffffffffffffffffffffffffffff1681565b600080fd5b600080fd5b600073ffffffffffffffffffffffffffffffffffffffff82169050919050565b60006107768261074b565b9050919050565b6107868161076b565b811461079157600080fd5b50565b6000813590506107a38161077d565b92915050565b6000819050919050565b6107bc816107a9565b81146107c757600080fd5b50565b6000813590506107d9816107b3565b92915050565b600080fd5b600080fd5b600080fd5b60008083601f840112610804576108036107df565b5b8235905067ffffffffffffffff811115610821576108206107e4565b5b60208301915083600182028301111561083d5761083c6107e9565b5b9250929050565b6000806000806000608086880312156108605761085f610741565b5b600061086e88828901610794565b955050602061087f88828901610794565b9450506040610890888289016107ca565b935050606086013567ffffffffffffffff8111156108b1576108b0610746565b5b6108bd888289016107ee565b92509250509295509295909350565b60007fffffffff0000000000000000000000000000000000000000000000000000000082169050919050565b610901816108cc565b82525050565b600060208201905061091c60008301846108f8565b92915050565b6000819050919050565b600061094761094261093d8461074b565b610922565b61074b565b9050919050565b60006109598261092c565b9050919050565b600061096b8261094e565b9050919050565b61097b81610960565b82525050565b60006020820190506109966000830184610972565b92915050565b6000602082840312156109b2576109b1610741565b5b60006109c084828501610794565b91505092915050565b6109d2816107a9565b82525050565b60008115159050919050565b6109ed816109d8565b82525050565b6000604082019050610a0860008301856109c9565b610a1560208301846109e4565b9392505050565b610a25816109d8565b8114610a3057600080fd5b50565b600081359050610a4281610a1c565b92915050565b600080600060608486031215610a6157610a60610741565b5b6000610a6f86828701610794565b9350506020610a80868287016107ca565b9250506040610a9186828701610a33565b9150509250925092565b600060208284031215610ab157610ab0610741565b5b6000610abf848285016107ca565b91505092915050565b6000602082019050610add60008301846109c9565b92915050565b6000610aee8261094e565b9050919050565b610afe81610ae3565b82525050565b6000602082019050610b196000830184610af5565b92915050565b600082825260208201905092915050565b82818337600083830152505050565b6000601f19601f8301169050919050565b6000610b5c8385610b1f565b9350610b69838584610b30565b610b7283610b3f565b840190509392505050565b6000604082019050610b9260008301866109c9565b8181036020830152610ba5818486610b50565b9050949350505050565b610bb88161076b565b82525050565b6000606082019050610bd36000830186610baf565b610be06020830185610baf565b610bed60408301846109c9565b949350505050565b600082825260208201905092915050565b7f4e6f20686179207265636f6d70656e7361732070617261207265636c616d6172600082015250565b6000610c3c602083610bf5565b9150610c4782610c06565b602082019050919050565b60006020820190508181036000830152610c6b81610c2f565b9050919050565b6000604082019050610c876000830185610baf565b610c9460208301846109c9565b9392505050565b600081519050610caa81610a1c565b92915050565b600060208284031215610cc657610cc5610741565b5b6000610cd484828501610c9b565b91505092915050565b7f4e6f20686179204e46547320646973706f6e69626c657320706172612072656360008201527f6c616d6172000000000000000000000000000000000000000000000000000000602082015250565b6000610d39602583610bf5565b9150610d4482610cdd565b604082019050919050565b60006020820190508181036000830152610d6881610d2c565b9050919050565b7f4e487b7100000000000000000000000000000000000000000000000000000000600052601160045260246000fd5b6000610da9826107a9565b9150610db4836107a9565b9250828203905081811115610dcc57610dcb610d6f565b5b92915050565b7f4e487b7100000000000000000000000000000000000000000000000000000000600052603260045260246000fd5b7f4e487b7100000000000000000000000000000000000000000000000000000000600052603160045260246000fdfea264697066735822122026a164fc176532b735324fdfd2d55f2622199e19e992a72ae67c6dfe063099dd64736f6c634300081b0033",
  "linkReferences": {},
  "deployedLinkReferences": {}
}