{
  "_format": "hh-sol-artifact-1",
  "contractName": "ExchangeContract",
  "sourceName": "contracts/ExchangeContract.sol",
  "abi": [
    {
      "inputs": [
        {
          "internalType": "contract TokenContract",
          "name": "_token",
          "type": "address"
        },
        {
          "internalType": "contract NFTContract",
          "name": "_nft",
          "type": "address"
        }
      ],
      "stateMutability": "nonpayable",
      "type": "constructor"
    },
    {
      "inputs": [
        {
          "internalType": "address",
          "name": "_investor",
          "type": "address"
        }
      ],
      "name": "claimRewards",
      "outputs": [],
      "stateMutability": "nonpayable",
      "type": "function"
    },
    {
      "inputs": [
        {
          "internalType": "address",
          "name": "",
          "type": "address"
        }
      ],
      "name": "investors",
      "outputs": [
        {
          "internalType": "uint256",
          "name": "rewardTokens",
          "type": "uint256"
        },
        {
          "internalType": "bool",
          "name": "isType1",
          "type": "bool"
        }
      ],
      "stateMutability": "view",
      "type": "function"
    },
    {
      "inputs": [],
      "name": "nft",
      "outputs": [
        {
          "internalType": "contract NFTContract",
          "name": "",
          "type": "address"
        }
      ],
      "stateMutability": "view",
      "type": "function"
    },
    {
      "inputs": [
        {
          "internalType": "address",
          "name": "_investor",
          "type": "address"
        },
        {
          "internalType": "uint256",
          "name": "_rewardTokens",
          "type": "uint256"
        },
        {
          "internalType": "bool",
          "name": "_isType1",
          "type": "bool"
        }
      ],
      "name": "registerInvestor",
      "outputs": [],
      "stateMutability": "nonpayable",
      "type": "function"
    },
    {
      "inputs": [],
      "name": "token",
      "outputs": [
        {
          "internalType": "contract TokenContract",
          "name": "",
          "type": "address"
        }
      ],
      "stateMutability": "view",
      "type": "function"
    }
  ],
  "bytecode": "0x608060405234801561001057600080fd5b50604051610a3a380380610a3a8339818101604052810190610032919061016d565b816000806101000a81548173ffffffffffffffffffffffffffffffffffffffff021916908373ffffffffffffffffffffffffffffffffffffffff16021790555080600160006101000a81548173ffffffffffffffffffffffffffffffffffffffff021916908373ffffffffffffffffffffffffffffffffffffffff16021790555050506101ad565b600080fd5b600073ffffffffffffffffffffffffffffffffffffffff82169050919050565b60006100ea826100bf565b9050919050565b60006100fc826100df565b9050919050565b61010c816100f1565b811461011757600080fd5b50565b60008151905061012981610103565b92915050565b600061013a826100df565b9050919050565b61014a8161012f565b811461015557600080fd5b50565b60008151905061016781610141565b92915050565b60008060408385031215610184576101836100ba565b5b60006101928582860161011a565b92505060206101a385828601610158565b9150509250929050565b61087e806101bc6000396000f3fe608060405234801561001057600080fd5b50600436106100575760003560e01c806347ccca021461005c5780636f7bc9be1461007a578063bb889823146100ab578063ef5cfb8c146100c7578063fc0c546a146100e3575b600080fd5b610064610101565b6040516100719190610510565b60405180910390f35b610094600480360381019061008f919061056e565b610127565b6040516100a29291906105cf565b60405180910390f35b6100c560048036038101906100c09190610650565b610158565b005b6100e160048036038101906100dc919061056e565b6101e0565b005b6100eb61046d565b6040516100f891906106c4565b60405180910390f35b600160009054906101000a900473ffffffffffffffffffffffffffffffffffffffff1681565b60026020528060005260406000206000915090508060000154908060010160009054906101000a900460ff16905082565b6040518060400160405280838152602001821515815250600260008573ffffffffffffffffffffffffffffffffffffffff1673ffffffffffffffffffffffffffffffffffffffff1681526020019081526020016000206000820151816000015560208201518160010160006101000a81548160ff021916908315150217905550905050505050565b6000600260008373ffffffffffffffffffffffffffffffffffffffff1673ffffffffffffffffffffffffffffffffffffffff1681526020019081526020016000209050600081600001541161026a576040517f08c379a00000000000000000000000000000000000000000000000000000000081526004016102619061073c565b60405180910390fd5b8060010160009054906101000a900460ff16156103295760008054906101000a900473ffffffffffffffffffffffffffffffffffffffff1673ffffffffffffffffffffffffffffffffffffffff1663a9059cbb8383600001546040518363ffffffff1660e01b81526004016102e092919061076b565b6020604051808303816000875af11580156102ff573d6000803e3d6000fd5b505050506040513d601f19601f8201168201806040525081019061032391906107a9565b5061045f565b60008054906101000a900473ffffffffffffffffffffffffffffffffffffffff1673ffffffffffffffffffffffffffffffffffffffff1663a9059cbb8383600001546040518363ffffffff1660e01b815260040161038892919061076b565b6020604051808303816000875af11580156103a7573d6000803e3d6000fd5b505050506040513d601f19601f820116820180604052508101906103cb91906107a9565b50600160009054906101000a900473ffffffffffffffffffffffffffffffffffffffff1673ffffffffffffffffffffffffffffffffffffffff166342842e0e308460016040518463ffffffff1660e01b815260040161042c93929190610811565b600060405180830381600087803b15801561044657600080fd5b505af115801561045a573d6000803e3d6000fd5b505050505b600081600001819055505050565b60008054906101000a900473ffffffffffffffffffffffffffffffffffffffff1681565b600073ffffffffffffffffffffffffffffffffffffffff82169050919050565b6000819050919050565b60006104d66104d16104cc84610491565b6104b1565b610491565b9050919050565b60006104e8826104bb565b9050919050565b60006104fa826104dd565b9050919050565b61050a816104ef565b82525050565b60006020820190506105256000830184610501565b92915050565b600080fd5b600061053b82610491565b9050919050565b61054b81610530565b811461055657600080fd5b50565b60008135905061056881610542565b92915050565b6000602082840312156105845761058361052b565b5b600061059284828501610559565b91505092915050565b6000819050919050565b6105ae8161059b565b82525050565b60008115159050919050565b6105c9816105b4565b82525050565b60006040820190506105e460008301856105a5565b6105f160208301846105c0565b9392505050565b6106018161059b565b811461060c57600080fd5b50565b60008135905061061e816105f8565b92915050565b61062d816105b4565b811461063857600080fd5b50565b60008135905061064a81610624565b92915050565b6000806000606084860312156106695761066861052b565b5b600061067786828701610559565b93505060206106888682870161060f565b92505060406106998682870161063b565b9150509250925092565b60006106ae826104dd565b9050919050565b6106be816106a3565b82525050565b60006020820190506106d960008301846106b5565b92915050565b600082825260208201905092915050565b7f4e6f20686179207265636f6d70656e7361732070617261207265636c616d6172600082015250565b60006107266020836106df565b9150610731826106f0565b602082019050919050565b6000602082019050818103600083015261075581610719565b9050919050565b61076581610530565b82525050565b6000604082019050610780600083018561075c565b61078d60208301846105a5565b9392505050565b6000815190506107a381610624565b92915050565b6000602082840312156107bf576107be61052b565b5b60006107cd84828501610794565b91505092915050565b6000819050919050565b60006107fb6107f66107f1846107d6565b6104b1565b61059b565b9050919050565b61080b816107e0565b82525050565b6000606082019050610826600083018661075c565b610833602083018561075c565b6108406040830184610802565b94935050505056fea2646970667358221220a82ba4b8ac129fe065aea4e0015022600ce328c90abc91169864858f4a06217764736f6c634300081b0033",
  "linkReferences": {},
  "deployedLinkReferences": {}
}